:100000000C9470000C9498000C9498000C94980038
:100010000C9498000C9498000C9498000C94980000
:100020000C9498000C9498000C9498000C949800F0
:100030000C9498000C9498000C9498000C949800E0
:100040000C9437030C9498000C9498000C9498002E
:100050000C9498000C9498000C9498000C949800C0
:100060000C9498000C94980021066A07A2086D0A67
:10007000D60B140D870E8C0495049E04A704B004BF
:10008000B904C20400000000240027002A00000078
:100090000000250028002B0000000000230026009F
:1000A00029000404040404040404020202020202FB
:1000B000030303030303010204081020408001022C
:1000C00004081020010204081020000000080002AB
:1000D0000100000304070000000000000000CA0E39
:1000E00011241FBECFEFD8E0DEBFCDBF12E0A0E0ED
:1000F000B1E0EAEDFEE102C005900D92AA3AB10727
:10010000D9F722E0AAEAB2E001C01D92A03EB207F0
:10011000E1F710E0C0E7D0E004C02197FE010E94A3
:10012000590FCF36D107C9F70E94CD040C946B0F3D
:100130000C940000833081F028F4813099F08230F3
:10014000A1F008958730A9F08830B9F08430D1F457
:10015000809180008F7D03C0809180008F77809395
:100160008000089584B58F7702C084B58F7D84BDEB
:1001700008958091B0008F7703C08091B0008F7D8B
:100180008093B00008953FB7F8948091DC0290917D
:10019000DD02A091DE02B091DF0226B5A89B05C06A
:1001A0002F3F19F00196A11DB11D3FBFBA2FA92FF6
:1001B000982F8827820F911DA11DB11DBC01CD0173
:1001C00042E0660F771F881F991F4A95D1F708955F
:1001D00040E0682F8FEB92E00C94F403009769F0F5
:1001E000FC0101900020E9F73197AF01481B590B42
:1001F000BC018FEB92E00C94810380E090E00895C5
:1002000081E00E94E8008BE39FE10197F1F70895F8
:100210000C94EE00643008F063E09091D20269170C
:1002200010F06FEF690FE62FF0E0E154FD4F948975
:10023000890F80680C94E8008F929F92AF92BF92D2
:100240000F931F93CF93DF93CDB7DEB7A1970FB670
:10025000F894DEBF0FBECDBF19A2423008F44AE0C9
:100260008E010F5D1F4F842E912CA12CB12CA50166
:1002700094010E94280FE62FB901CA01015011090B
:10028000EA3014F4E05D01C0E95CD801EC93232B63
:10029000242B252B61F7C8010E94EE00A1960FB612
:1002A000F894DEBF0FBECDBFDF91CF911F910F91AC
:1002B000BF90AF909F908F900895CF92DF92EF9272
:1002C000FF9297FF18C06B017C0141E06DE28FEB5C
:1002D00092E00E94F40366277727CB016C197D0911
:1002E0008E099F094AE00E941C010196FF90EF9041
:1002F000DF90CF9008954AE0FF90EF90DF90CF908D
:100300000C941C01BC01990F880B990B0C945D0196
:100310000F931F93CF93DF938B01877028E0829F09
:10032000C001112480640E94E800E801085F1F4FAB
:1003300069918FEB92E00E944704C017D107C1F783
:10034000DF91CF911F910F910895CF93DF93282FC5
:1003500030E0F901E653FF4F8491F901EA54FF4F71
:10036000D491F901EE55FF4FC491CC2391F0811146
:100370000E949A00EC2FF0E0EE0FFF1FE856FF4FAF
:10038000A591B491EC91ED2381E090E021F480E01F
:1003900002C080E090E0DF91CF9108951F93CF934A
:1003A000DF93282F30E0F901E653FF4F8491F901E4
:1003B000EA54FF4FD491F901EE55FF4FC491CC237D
:1003C000C1F0162F81110E949A00EC2FF0E0EE0F81
:1003D000FF1FE257FF4FA591B4919FB7F8941111F9
:1003E00004C08C91D095D82302C0EC91DE2BDC9315
:1003F0009FBFDF91CF911F910895CF93DF9390E03E
:10040000FC01EA54FF4F2491FC01EE55FF4F84910B
:10041000882361F190E0880F991FFC01EC57FF4F92
:10042000C591D491FC01E257FF4FA591B4916111A0
:1004300009C09FB7F8948881209582238883EC9126
:100440002E230BC0623061F49FB7F8948881322F5D
:10045000309583238883EC912E2B2C939FBF06C06D
:100460008FB7F894E8812E2B28838FBFDF91CF912F
:100470000895CF93DF93823028F09091CE02986058
:100480009093CE028093D2021092D30280E48093A4
:10049000D40280E18093D50280E58093D60261E0AA
:1004A0008091C3020E94FD018091C4028F3F19F028
:1004B00061E00E94FD0161E08091C5020E94FD01A2
:1004C000CFEBD2E09E012F5B32408091CE0284FDC3
:1004D00003C084E090E002C088E090E021962817F5
:1004E00039072CF461E08E810E94FD01EBCF8BE394
:1004F0009DE00197F1F760E08091C3020E94CE0178
:1005000060E08091C5020E94CE018091C4028F3FBD
:1005100019F060E00E94CE018091CE0284FD20C0DF
:1005200063E08FEB92E00E94C703CBE4D6E4CE01F8
:100530000197F1F763E08FEB92E00E94C7032197E8
:10054000F1F763E08FEB92E00E94C70383E592E04E
:100550000197F1F762E08FEB92E00E94C70315C0AC
:1005600080620E94E8008BE496E40197F1F78091A5
:10057000CE0280620E94E80083E592E00197F1F7E5
:100580008091CE0280620E94E8008091CE0280625B
:100590000E94E80084E08093CF028CE00E94E80093
:1005A0000E94000182E08093D00286E0DF91CF912B
:1005B0000C94E8008E3008F08E5087708064809331
:1005C0007C0080917A00806480937A0080917A0028
:1005D00086FDFCCF809178002091790090E0922BED
:1005E00008958F929F92AF92BF92CF92DF92EF9237
:1005F000FF926B017C010E94C3004B015C01C1149E
:10060000D104E104F104F1F00E94C300DC01CB014C
:1006100088199909AA09BB09883E9340A105B1052B
:1006200070F321E0C21AD108E108F10888EE880EC3
:1006300083E0981EA11CB11CC114D104E104F10493
:1006400019F7DDCFFF90EF90DF90CF90BF90AF9084
:100650009F908F9008952FB7F8946091D802709171
:10066000D9028091DA029091DB022FBF08951F9288
:100670000F920FB60F9211242F933F938F939F9356
:10068000AF93BF938091D8029091D902A091DA02E2
:10069000B091DB023091D70223E0230F2D3720F4F5
:1006A0000196A11DB11D05C026E8230F0296A11DCC
:1006B000B11D2093D7028093D8029093D902A093C2
:1006C000DA02B093DB028091DC029091DD02A0910E
:1006D000DE02B091DF020196A11DB11D8093DC0204
:1006E0009093DD02A093DE02B093DF02BF91AF9141
:1006F0009F918F913F912F910F900FBE0F901F9060
:100700001895CF92DF92EF92FF920F931F93CF93A2
:10071000DF936C017A018B01C0E0D0E0CE15DF05DC
:1007200081F0D8016D918D01D601ED91FC91019080
:10073000F081E02DC6010995892B11F02196EECFAD
:100740007E01C701DF91CF911F910F91FF90EF9034
:10075000DF90CF900895089580E090E008950E9482
:10076000660FCF93DF93EC0160E08E810E94CE0193
:1007700061E08E810E94CE0160E08E810E94CE01F8
:100780008BE891E00197F1F7DF91CF910895CF9237
:10079000DF92EF92FF920F931F93CF93DF936C0141
:1007A0007C0187E0E80EF11CC0E0D0E0062F10E0ED
:1007B000B8010C2E02C0759567950A94E2F7617036
:1007C000F70181917F010E94CE012196C430D105AD
:1007D00079F7C601DF91CF911F910F91FF90EF90B4
:1007E000DF90CF900C94B103CF92DF92EF92FF9203
:1007F0000F931F93CF93DF93EC01F62E642F8C8120
:100800000E94CE018D818F3F19F060E00E94CE01E1
:100810008F850F2D10E084FF25C06E0187E0C80E84
:10082000D11CE12CF12CB8010E2C02C075956795F6
:100830000A94E2F76170F60181916F010E94CE0186
:10084000FFEFEF1AFF0A88E0E816F10461F7CE0126
:10085000DF91CF911F910F91FF90EF90DF90CF909C
:100860000C94B103B80184E0759567958A95E1F71A
:10087000CE010E94C7036F2DCE01DF91CF911F9152
:100880000F91FF90EF90DF90CF900C94C70341E061
:100890000E94F40381E090E008950C94F00E0C9413
:1008A000E80E8EE00E94DA0285369340D4F3089574
:1008B0008EE00E94DA028431910564F0803F910558
:1008C0005CF0853B22E092074CF08438934044F082
:1008D0008EE408958CE4089585E5089584E40895F0
:1008E00082E508950E94000161E083E10E94CE014B
:1008F00060E080E00E940A01E09149018E2F90E0C3
:10090000FC013197E730F10508F046C0E55CFF4F88
:1009100084E392E00C94590F0E94080161E080E0AA
:100920000E940A018CE392E035C00E94080161E058
:1009300080E00E940A018AE492E02CC00E94080133
:1009400061E080E00E940A0183E592E023C00E94FA
:10095000080161E080E00E940A0187E692E01AC087
:100960000E94080161E080E00E940A0189E792E0AC
:1009700011C00E94080161E080E00E940A018AE83B
:1009800092E008C00E94080161E080E00E940A0134
:100990008AE992E00C9408010895789484B5826005
:1009A00084BD84B5816084BD85B5826085BD85B513
:1009B000816085BD80916E00816080936E00109291
:1009C000810080918100826080938100809181000C
:1009D000816080938100809180008160809380009D
:1009E0008091B10084608093B1008091B0008160FB
:1009F0008093B00080917A00846080937A00809127
:100A00007A00826080937A0080917A00816080937E
:100A10007A0080917A00806880937A001092C100F9
:100A200082E00E94390261E08AE00E94FD0161E0FB
:100A300089E00E94FD0161E083E10E94FD0160E028
:100A40008FE00E94FD0168E371E081E00E9488016F
:100A500060E371E082E00E94880168E271E083E077
:100A60000E94880160E271E084E00E94880168E1F0
:100A700071E085E00E94880160E171E086E00E94FB
:100A8000880168E071E087E00E94880160E071E021
:100A900088E00E94880160E080E00E940A0161E035
:100AA0008FEB92E00E94470462E08FEB92E00E949D
:100AB000470463E08FEB92E00E94470464E08FEB11
:100AC00092E00E94470461E080E00E940A0165E034
:100AD0008FEB92E00E94470466E08FEB92E00E9469
:100AE000470467E08FEB92E00E94470468E08FEBD9
:100AF00092E00E94470460E085E00E940A0186E5DA
:100B000091E00E94080161E085E00E940A0181E60F
:100B100091E00E94080161E083E10E94CE0160EA59
:100B20007FE080E090E00E94F1020E94720468EE93
:100B300073E080E090E00E94F10281E090E00E948A
:100B40004F0490E0A0E0B0E08093AA029093AB0243
:100B5000A093AC02B093AD0282E090E00E944F04FB
:100B600090E0A0E0B0E08093450190934601A0930F
:100B70004701B093480183E090E00E944F0490E069
:100B8000A0E0B0E08093410190934201A093430123
:100B9000B093440184E090E00E944F0490E0909371
:100BA000B1028093B00285E090E00E944F0490E093
:100BB0009093BB028093BA02CC24CA9493E0D92EBE
:100BC000E12CF12C8EE1482E512C612C712C0E94CD
:100BD0005804C82F8093BE020E945104809149019D
:100BE000C43429F48F5F883038F081E005C0C53502
:100BF00029F4815009F487E08093490190914901DB
:100C000080914001981731F00E947204809149014F
:100C1000809340018091BE02823511F00C94BA0E8F
:100C20000E945104E09149018E2F90E0FC01319720
:100C3000E730F10510F00C94B60EEC5CFF4F0C940D
:100C4000590F0E94000160E080E00E940A018AE6DC
:100C500091E00E9408018091AA029091AB02A091BC
:100C6000AC02B091AD024F97A105B1056CF0409276
:100C7000AA025092AB026092AC027092AD026EE199
:100C800081E090E00E944D040E9458048C3409F4E5
:100C900048C161E080E00E940A0186E791E00E947D
:100CA00008016091AA027091AB028091AC02909110
:100CB000AD020E945D018DE791E00E9408010E9453
:100CC00058048093BE02843409F58090AA02909063
:100CD000AB02A090AC02B090AD02181419041A0433
:100CE0001B04A4F40E945104C501B40161507109B0
:100CF000810991096093AA027093AB028093AC02C0
:100D00009093AD0281E090E00E944D048091BE027C
:100D10008535E1F40E9451048091AA029091AB02C2
:100D2000A091AC02B091AD02BC01CD016F5F7F4FCD
:100D30008F4F9F4F6093AA027093AB028093AC02D7
:100D40009093AD0281E090E00E944D048091BE023C
:100D5000823509F099CF0E94510461E089E00E9438
:100D6000CE0161E080E00E940A0181E891E00E94EA
:100D700008010E942B036093B6027093B702809320
:100D8000B8029093B9021092B2021092B30210927C
:100D9000B4021092B5020E9458048C3409F495C034
:100DA0000E942B030091B6021091B7022091B80265
:100DB0003091B902DC01CB01801B910BA20BB30B6C
:100DC0008093B2029093B302A093B402B093B502A1
:100DD00061E088E00E940A0181EB91E00E94080135
:100DE00061E089E00E940A016091B2027091B30251
:100DF0008091B4029091B50228E13CEF4FEF5FEF94
:100E00000E94FE0E8091AA029091AB02A091AC02CA
:100E1000B091AD02BC01CD01620F731F841F951FFD
:100E20000E945D018AE891E00E94080168EC70E090
:100E300080E090E00E94F1022091AA023091AB0282
:100E40004091AC025091AD02A8EEB3E00E941D0F9C
:100E5000DC01CB01835F9140A109B1090091B2028D
:100E60001091B3022091B4023091B502081719070E
:100E70002A073B070CF48FCF61E080E00E940A0153
:100E80008CE891E00E94080161E08AE00E94CE01B6
:100E900064EF71E080E090E00E94F10260E08AE09F
:100EA0000E94CE0161E080E00E940A018CE991E09D
:100EB0000E9408010E942B036093B6027093B70250
:100EC0008093B8029093B90266CF60E089E00E94F7
:100ED000CE01DACE0E94000160E080E00E940A01AB
:100EE00086EA91E00E9408018091410190914201BF
:100EF000A0914301B09144014F97A105B1056CF059
:100F0000409241015092420160924301709244012B
:100F10006EE183E090E00E944D040E9458048C34FE
:100F200039F46AE070E080E090E00E94F1021EC7B0
:100F300061E080E00E940A0186E791E00E940801DA
:100F4000609141017091420180914301909144016F
:100F50000E945D018DEA91E00E9408010E94580400
:100F60008093BE02843409F5809041019090420143
:100F7000A0904301B0904401181419041A041B04F2
:100F8000A4F40E945104C501B401615071098109A2
:100F900091096093410170934201809343019093C2
:100FA000440183E090E00E944D048091BE028535AB
:100FB000E1F40E9451048091410190914201A0917D
:100FC0004301B0914401BC01CD016F5F7F4F8F4F52
:100FD0009F4F60934101709342018093430190932E
:100FE000440183E090E00E944D048091BE0282356E
:100FF00009F093CF0E94510461E080E00E940A0151
:101000008BEB91E00E9408010E942B036093B602D3
:101010007093B7028093B8029093B9022091410176
:10102000309142014091430150914401A8EEB3E058
:101030000E941D0F6093B2027093B3028093B402BA
:101040009093B5020E942B030091B6021091B70253
:101050002091B8023091B902DC01CB01801B910BC9
:10106000A20BB30B0091B2021091B3022091B40213
:101070003091B50261E080179107A207B30708F02D
:1010800047C089E00E94CE0161E089E00E940A0128
:1010900084EB91E00E94080161E089E00E940A016E
:1010A0008090B6029090B702A090B802B090B902BA
:1010B0000E942B030091B2021091B3022091B4025E
:1010C0003091B502800E911EA21EB31EA50194019F
:1010D000261B370B480B590BCA01B90128EE33E028
:1010E00040E050E00E94280FCA01B9016F5F7F4FB6
:1010F0008F4F9F4F4AE00E941C0188EC91E00E94B4
:10110000080164E670E080E090E00E94F1029ACF6E
:1011100080E00E940A018CE891E00E94080161E0F1
:101120008AE00E94CE0164EF71E080E090E00E94CE
:10113000F10260E08AE00E94CE0160E089E00E9456
:10114000CE01EBCE0E94000160E080E00E940A0127
:101150008DEC91E00E9408018091B0029091B10263
:10116000813591055CF080E590E09093B102809329
:10117000B00260E584E090E00E944D04C0E0D0E061
:1011800004E610E00E9458048C3409F4EFC561E0D5
:1011900080E00E940A018FE00E94DA0224E630E03B
:1011A000DC010E945F0FA70196010E94FE0E49011B
:1011B0005A01C9013093AF022093AE02C217D30780
:1011C0000CF4E901801791070CF4840163E28FEBC2
:1011D00092E00E944704C4010E94820189EB91E0E1
:1011E0000E94080161E084E00E940A016BE28FEB3B
:1011F00092E00E944704CE010E94820189EB91E0B7
:101200000E94080161E088E00E940A016DE28FEB14
:1012100092E00E944704C8010E94820189EB91E09C
:101220000E94080161E08CE00E940A016EE78FEBEA
:1012300092E00E9447048091B0029091B1020E9416
:10124000820189EB91E00E9408010E94580480937A
:10125000BE028434A1F4A090B002B090B1021A147E
:101260001B046CF40E945104B50161507109709324
:10127000B1026093B00284E090E00E944D0480913E
:10128000BE028535A9F4A090B002B090B10233E659
:10129000A316B1046CF40E945104B5016F5F7F4F37
:1012A0007093B1026093B00284E090E00E944D041C
:1012B0008091BE02823509F007C10E94510461E0AD
:1012C00089E00E94CE010E9458048C3409F4F8C0D1
:1012D00061E080E00E940A018FE00E94DA0224E6C9
:1012E00030E0DC010E945F0FA70196010E94FE0E14
:1012F00049015A01C9013093AF022093AE02C217CF
:10130000D3070CF4E901801791070CF4840163E220
:101310008FEB92E00E944704C4010E94820189EB96
:1013200091E00E94080161E084E00E940A016BE202
:101330008FEB92E00E944704CE010E94820189EB6C
:1013400091E00E94080161E088E00E940A016DE2DC
:101350008FEB92E00E944704C8010E94820189EB52
:1013600091E00E94080161E08CE00E940A016EE7B2
:101370008FEB92E00E9447048091B0029091B102FD
:101380000E94820189EB91E00E9408012091B00245
:101390003091B1028091AE029091AF0261E02817C6
:1013A00039070CF047C08BE00E940A0161E08AE037
:1013B0000E94CE012091B0023091B1028091AE0224
:1013C0009091AF0260E028173907C4F48DE00E94C5
:1013D0000A018FED91E00E9408018FE00E94DA027D
:1013E00024E630E0DC010E945F0FA70196010E9415
:1013F000FE0E3093AF022093AE02DCCF8DE00E9450
:101400000A0160ED77E080E090E00E94F10287EB56
:1014100091E00E94080160E089E00E94CE0160E056
:101420008AE00E94CE0160ED77E080E090E00E94CB
:10143000F10203C089E00E94CE010E94580480930B
:10144000BE028434A1F4A090B002B090B1021A148C
:101450001B046CF40E945104B50161507109709332
:10146000B1026093B00284E090E00E944D0480914C
:10147000BE028535A9F4A090B002B090B10243E657
:10148000A416B1046CF40E945104B5016F5F7F4F44
:101490007093B1026093B00284E090E00E944D042A
:1014A0008091BE02823509F00ECF0E94510483E183
:1014B0000E94A50161E0892B09F060E083E101CF82
:1014C00060E08AE00E94CE0160E089E00E94CE01E7
:1014D00061E083E10E94CE0155CE0E94000160E0F0
:1014E00080E00E940A0183EE91E00E94080180E5FD
:1014F00090E09093B1028093B00200E010E0C4E667
:10150000D0E00E9458048C3409F430C461E080E0DB
:101510000E940A018FE00E94DA0224E630E0DC013A
:101520000E945F0FA70196010E94FE0E49015A0119
:10153000C9013093AF022093AE02021713070CF4D7
:1015400089018C179D070CF4E401CE01019690935C
:10155000B1028093B00263E28FEB92E00E944704F5
:10156000C4010E94820189EB91E00E94080161E0C0
:1015700084E00E940A016BE28FEB92E00E94470434
:10158000C8010E94820189EB91E00E94080161E09C
:1015900088E00E940A016DE28FEB92E00E9447040E
:1015A000CE010E94820189EB91E00E94080161E076
:1015B0008CE00E940A016EE78FEB92E00E944704E4
:1015C0008091B0029091B1020E94820189EB91E07A
:1015D0000E9408010E9458048093BE02823509F0DF
:1015E000DCC00E94510461E089E00E94CE010E94AB
:1015F00058048C3409F4CDC061E080E00E940A01F7
:101600008FE00E94DA0224E630E0DC010E945F0FE6
:10161000A70196010E94FE0E49015A01C9013093AB
:10162000AF022093AE02021713070CF489018C1746
:101630009D070CF4E401CE0101969093B1028093D2
:10164000B00263E28FEB92E00E944704C4010E9463
:10165000820189EB91E00E94080161E084E00E9430
:101660000A016BE28FEB92E00E944704C8010E94DE
:10167000820189EB91E00E94080161E088E00E940C
:101680000A016DE28FEB92E00E944704CE010E94B6
:10169000820189EB91E00E94080161E08CE00E94E8
:1016A0000A016EE78FEB92E00E9447048091B0023E
:1016B0009091B1020E94820189EB91E00E940801A1
:1016C0002091B0023091B1028091AE029091AF02B0
:1016D00061E0281739070CF047C08BE00E940A012F
:1016E00061E08AE00E94CE012091B0023091B10207
:1016F0008091AE029091AF0260E028173907C4F4E0
:101700008DE00E940A018FED91E00E9408018FE0B8
:101710000E94DA0224E630E0DC010E945F0FA7019C
:1017200096010E94FE0E3093AF022093AE02DCCFF2
:101730008DE00E940A0160ED77E080E090E00E9479
:10174000F10287EB91E00E94080160E089E00E94CD
:10175000CE0160E08AE00E94CE0160ED77E080E09B
:1017600090E00E94F10203C089E00E94CE010E9435
:1017700058048093BE02823509F039CF0E9451048B
:1017800083E10E94A50161E0892B09F060E083E11B
:101790002CCF60E08AE00E94CE0160E089E00E94E8
:1017A000CE0161E083E10E94CE01ABCE0E94000138
:1017B00060E080E00E940A0183EF91E00E9408014E
:1017C0008091450190914601A0914701B091480157
:1017D00089379105A105B1058CF088E790E0A0E07C
:1017E000B0E08093450190934601A0934701B093E8
:1017F000480168E782E090E00E944D040E9458048E
:101800008C3409F48ECB61E080E00E940A0182E012
:1018100092E00E940801609145017091460180911B
:101820004701909148010E945D0188E092E00E948A
:1018300008010E9458048093BE02843409F5809008
:10184000450190904601A0904701B09048011814BE
:1018500019041A041B04A4F40E945104C501B40124
:1018600061507109810991096093450170934601A6
:10187000809347019093480182E090E00E944D04DC
:101880008091BE028535E1F40E94510480914501AA
:1018900090914601A0914701B0914801BC01CD0152
:1018A0006F5F7F4F8F4F9F4F60934501709346014D
:1018B000809347019093480182E090E00E944D049C
:1018C0008091BE02823509F099CF0E94510461E0F7
:1018D00089E00E94CE0168E873E180E090E00E9418
:1018E000F10261E080E00E940A0182E192E00E9440
:1018F00008016091450170914601809147019091E6
:1019000048010E945D018DE791E00E94080161E0BD
:101910008AE00E94CE010E942B036093B60270936E
:10192000B7028093B8029093B9022091450130919B
:1019300046014091470150914801A8EEB3E00E9452
:101940001D0F6093B2027093B3028093B402909320
:10195000B5020E942B030091B6021091B7022091AC
:10196000B8023091B902DC01CB01801B910BA20BB4
:10197000B30B0091B2021091B3022091B4023091E6
:10198000B50280179107A207B30708F044C061E0D1
:1019900086E00E940A0185E192E00E9408018090A1
:1019A000B6029090B702A090B802B090B9020E941F
:1019B0002B030091B2021091B3022091B402309136
:1019C000B502800E911EA21EB31EA5019401261B16
:1019D000370B480B590BCA01B90128EE33E040E040
:1019E00050E00E94280FCA01B9016F5F7F4F8F4FEF
:1019F0009F4F4AE00E941C018DE791E00E94080180
:101A000064E670E080E090E00E94F10261E08AE02C
:101A10000E94CE019ECF60E08AE00E94CE0160E08D
:101A200089E00E94CE01EACE0E94000160E080E0E1
:101A30000E940A0189E192E00E94080100E010E0A2
:101A4000C4E6D0E00E9458048C3409F48FC161E0F0
:101A500080E00E940A0180E10E94DA0224E630E080
:101A6000DC010E945F0FA70196010E94FE0E490152
:101A70005A01C9013093BD022093BC02021713071B
:101A80000CF489018C179D070CF4E40163E28FEBE1
:101A900092E00E944704C4010E94820189EB91E018
:101AA0000E94080161E084E00E940A016BE28FEB72
:101AB00092E00E944704C8010E94820189EB91E0F4
:101AC0000E94080161E088E00E940A016DE28FEB4C
:101AD00092E00E944704CE010E94820189EB91E0CE
:101AE0000E94080161E08CE00E940A016EE78FEB22
:101AF00092E00E9447048091BA029091BB020E943A
:101B0000820189EB91E00E9408010E9458048093B1
:101B1000BE028434A1F4A090BA02B090BB021A14A1
:101B20001B046CF40E945104B5016150710970935B
:101B3000BB026093BA0285E090E00E944D04809160
:101B4000BE028535A9F4A090BA02B090BB0233E67C
:101B5000A316B1046CF40E945104B5016F5F7F4F6E
:101B60007093BB026093BA0285E090E00E944D043E
:101B70008091BE02823509F0C5C00E94510461E027
:101B800089E00E94CE010E9458048C3409F4B2C04E
:101B900061E080E00E940A0180E10E94DA0224E60E
:101BA00030E0DC010E945F0FA70196010E94FE0E4B
:101BB00049015A01C9013093BD022093BC020217AA
:101BC00013070CF489018C179D070CF4E40163E200
:101BD0008FEB92E00E944704C4010E94820189EBCE
:101BE00091E00E94080161E084E00E940A016BE23A
:101BF0008FEB92E00E944704C8010E94820189EBAA
:101C000091E00E94080161E088E00E940A016DE213
:101C10008FEB92E00E944704CE010E94820189EB83
:101C200091E00E94080161E08CE00E940A016EE7E9
:101C30008FEB92E00E9447048091BA029091BB0220
:101C40000E94820189EB91E00E9408012091BA0272
:101C50003091BB028091BC029091BD0228173907D8
:101C60005CF461E08BE00E940A0160E089E00E9480
:101C7000CE0161E08AE006C060E08AE00E94CE0109
:101C800061E089E00E94CE010E9458048093BE0268
:101C90008434A1F4A090BA02B090BB021A141B04C1
:101CA0006CF40E945104B501615071097093BB023C
:101CB0006093BA0285E090E00E944D048091BE02DC
:101CC000853509F060CFA090BA02B090BB0243E620
:101CD000A416B1040CF057CF0E945104B5016F5FF8
:101CE0007F4F7093BB026093BA0285E090E00E9440
:101CF0004D0449CF60E08AE00E94CE0161E089E0B6
:101D00000E94CE0160E089E00E94CE019BCE0E943D
:101D1000000160E080E00E940A0187E292E00E94F8
:101D200008018091BE028235E9F40E94510461E00D
:101D300089E00E94CE010E9458048C3499F00E94E0
:101D400058048093BE028235B1F761E08AE00E94B8
:101D5000CE0168EE73E080E090E00E94F10260E066
:101D60008AE0E7CF60E089E00E94CE010E94720421
:101D70000E9451046AE070E080E090E00E94F1026D
:101D800080E090E0892B11F40C94E7050E9400009C
:101D90000C94E205EFEBF2E0138212828EE491E004
:101DA0009183808382E084838FEF858383E08683C1
:101DB00084E0878385E0808786E0818787E082876B
:101DC0001386148615861686178681E00C943902D0
:101DD000F999FECF92BD81BDF89A992780B50895F3
:101DE000262FF999FECF1FBA92BD81BD20BD0FB637
:101DF000F894FA9AF99A0FBE01960895052E97FB6A
:101E00001EF400940E94150F57FD07D00E94280F62
:101E100007FC03D04EF40C94150F50954095309567
:101E200021953F4F4F4F5F4F089590958095709546
:101E300061957F4F8F4F9F4F08950E944A0FA59F36
:101E4000900DB49F900DA49F800D911D11240895B5
:101E5000A1E21A2EAA1BBB1BFD010DC0AA1FBB1FAE
:101E6000EE1FFF1FA217B307E407F50720F0A21B20
:101E7000B30BE40BF50B661F771F881F991F1A948D
:101E800069F760957095809590959B01AC01BD01B7
:101E9000CF010895A29FB001B39FC001A39F700D11
:101EA000811D1124911DB29F700D811D1124911D62
:101EB0000895EE0FFF1F0590F491E02D09940E9404
:101EC0004A0FB7FF0895821B930B089581E090E0BD
:0A1ED000F8940C946B0FF894FFCF08
:101EDA001F1F1F1F1F1F1F1E04040101030F1F1FA7
:101EEA0000001010181E1F1F1F1F1F1F1F1F1F0F6C
:101EFA000000001E1F13131F1C1E1F1F0F03190DA6
:101F0A00070F1F1F1E1811100000000F1F1F1F1F91
:101F1A000105000000050000000100000000470460
:101F2A008103AC03AB0343616D6572612043545274
:101F3A000056657220302E3136003E54696D652098
:101F4A004C617073650054696D653A2000732020F6
:101F5A000052756E6E696E673A007300232323235D
:101F6A0023434C49434B23232323230052756E6E8C
:101F7A00696E673A20003E54696D657200732020CD
:101F8A002020202020202020202000576169746909
:101F9A006E6720202020200073202020003E4C69FC
:101FAA006768746E696E67204D616E75616C004377
:101FBA004C4B003E4C696768746E696E67204175C8
:101FCA00746F003E4C6F6E67204578706F73757240
:101FDA00650054696D653A00732020202020202076
:101FEA002000543A0020443A003E536F756E642034
:101FFA0053656E736F72003E4D616E75616C204D54
:10200A006F64650053656C6563743A00313E205411
:10201A00696D65204C6170736500323E2054696DAC
:10202A00657200333E204C696768746E696E67207A
:10203A004D616E75616C00343E204C696768746E40
:10204A00696E67204175746F00353E204C6F6E676C
:10205A00204578706F7375726500363E20536F7530
:10206A006E642073656E736F7200373E204D616E29
:0A207A0075616C206D6F6465000055
:107E0000112484B714BE81FFF0D085E080938100F7
:107E100082E08093C00088E18093C10086E0809377
:107E2000C20080E18093C4008EE0C9D0259A86E02C
:107E300020E33CEF91E0309385002093840096BBD3
:107E4000B09BFECF1D9AA8958150A9F7CC24DD24C4
:107E500088248394B5E0AB2EA1E19A2EF3E0BF2EE7
:107E6000A2D0813461F49FD0082FAFD0023811F036
:107E7000013811F484E001C083E08DD089C08234E0
:107E800011F484E103C0853419F485E0A6D080C0E4
:107E9000853579F488D0E82EFF2485D0082F10E0AE
:107EA000102F00270E291F29000F111F8ED06801E7
:107EB0006FC0863521F484E090D080E0DECF843638
:107EC00009F040C070D06FD0082F6DD080E0C81688
:107ED00080E7D80618F4F601B7BEE895C0E0D1E017
:107EE00062D089930C17E1F7F0E0CF16F0E7DF06D8
:107EF00018F0F601B7BEE89568D007B600FCFDCFD4
:107F0000A601A0E0B1E02C9130E011968C91119780
:107F100090E0982F8827822B932B1296FA010C0160
:107F200087BEE89511244E5F5F4FF1E0A038BF0790
:107F300051F7F601A7BEE89507B600FCFDCF97BE46
:107F4000E89526C08437B1F42ED02DD0F82E2BD052
:107F50003CD0F601EF2C8F010F5F1F4F84911BD097
:107F6000EA94F801C1F70894C11CD11CFA94CF0C13
:107F7000D11C0EC0853739F428D08EE10CD085E9AC
:107F80000AD08FE07ACF813511F488E018D01DD067
:107F900080E101D065CF982F8091C00085FFFCCF94
:107FA0009093C60008958091C00087FFFCCF809118
:107FB000C00084FD01C0A8958091C6000895E0E648
:107FC000F0E098E1908380830895EDDF803219F02E
:107FD00088E0F5DFFFCF84E1DECF1F93182FE3DFCA
:107FE0001150E9F7F2DF1F91089580E0E8DFEE27F6
:047FF000FF270994CA
:027FFE00040479
:0400000300007E007B
:00000001FF
